:020000040800F2
:10000000785C00201D2C0008BD030008BF03000819
:10001000C3030008C7030008CB030008000000006A
:100020000000000000000000000000009D0100082A
:10003000CF03000800000000F9010008412C00086F
:10004000372C0008372C0008372C0008372C000804
:10005000372C0008372C0008372C0008372C0008F4
:10006000372C0008372C0008372C0008372C0008E4
:10007000372C0008372C0008372C0008372C0008D4
:10008000372C0008433D0008372C0008372C0008A7
:10009000618A0008372C0008372C0008372C00082C
:1000A000372C0008372C0008372C0008372C0008A4
:1000B0000B400008372C0008372C0008372C0008AC
:1000C000372C0008372C0008372C0008372C000884
:1000D000372C0008372C0008A1370008CB33000864
:1000E000372C0008372C0008372C0008372C000864
:1000F000372C0008372C0008372C0008372C000854
:10010000372C0008372C0008372C0008372C000843
:10011000612F0008372C0008372C0008372C000806
:10012000372C0008372C0008372C0008372C000823
:10013000372C0008372C0008372C0008372C000813
:10014000E38A0008372C0008372C0008372C0008F9
:10015000372C0008372C0008372C0008372C0008F3
:10016000372C0008372C0008372C0008372C0008E3
:10017000372C0008372C0008372C0008372C0008D3
:10018000372C0008372C0008DFF80CD009F08EF966
:10019000004800475D020008785C00202C4B19687D
:1001A0000868B0E8F04F80F30988BFF36F8F4FF015
:1001B000000080F3118870470000000008480068C4
:1001C000006880F308884FF0000080F3148862B65E
:1001D00061B6BFF34F8FBFF36F8F00DF00BF00BF6B
:1001E00008ED00E0DFF80C00016841F470010160E7
:1001F000704700BF88ED00E0EFF30980BFF36F8F19
:10020000134B1A681EF0100F08BF20ED108A20E96A
:10021000F04F106009B44FF0500080F31188BFF325
:100220004F8FBFF36F8F05F090FC4FF0000080F30D
:10023000118809BC19680868B0E8F04F1EF0100F6B
:1002400008BFB0EC108A80F30988BFF36F8F704746
:100250007C000020EFF30580704700001CB54FF4D0
:10026000407000F03BF8A82002F0F2FC02F0BAFF68
:1002700003F0E2FE03F04EFF0121084601F080F892
:1002800000208DF804000C20009000208DF807005D
:1002900069460F4801F018FF03F0CCF903F012F89B
:1002A00003F046F903F092FE02F062FF03F00AFE4B
:1002B00040F2CA300749886302F038FD064809F069
:1002C0003FF908F0F4F905F0BCFD00201CBD00006A
:1002D0000000024000000140B0AC00083249014378
:1002E000324A1160704770B5002100230F22C47894
:1002F0001CB32E4C246804F4E064C4F5E064C4F339
:100300000721C1F10404E3B20A4144789C40E1B200
:100310008478144021430C07210E254C0578615543
:10032000047804F01F050124AC4005786D11AD0080
:1003300005F1E025C5F8004109E0047804F01F0547
:100340000124AC401B4D0678761145F8264070BD5F
:10035000194A0A400243154B1B1F1A60704739B1F6
:10036000124A121D12680243104B1B1D1A6006E050
:100370000E4A121D126882430C4B1B1D1A607047F7
:10038000042808D14FF0E021096941F004014FF041
:10039000E022116107E04FF0E021096921F004013A
:1003A0004FF0E022116170470000FA050CED00E00B
:1003B00000E400E080E100E080FFFF1F704700BF25
:1003C000FEE700BFFEE700BFFEE700BFFEE77047A5
:1003D00010B50446FE48844208D10121084601F0C8
:1003E0007BF80021012001F077F89DE0B4F1804F07
:1003F00008D10121084601F05EF80021012001F03A
:100400005AF891E0F348844208D10121022001F01A
:1004100052F80021022001F04EF885E0EE488442B7
:1004200008D10121042001F046F80021042001F048
:1004300042F879E0E948844208D10121082001F01E
:100440003AF80021082001F036F86DE0E4488442D3
:1004500008D10121102001F02EF80021102001F018
:100460002AF861E0DF48844208D10121202001F010
:1004700022F80021202001F01EF855E0DA488442DD
:1004800008D10121022001F027F80021022001F00B
:1004900023F849E0D548844209D10121080401F03C
:1004A0001BF800214FF4803001F016F83CE0D048F2
:1004B000844209D10121480401F00EF800214FF4D3
:1004C000003001F009F82FE0CA48844209D1012127
:1004D000880401F001F800214FF4802000F0FCFFB7
:1004E00022E0C548844208D10121402000F0E3FF0A
:1004F0000021402000F0DFFF16E0C048844208D110
:100500000121802000F0D7FF0021802000F0D3FFE0
:100510000AE0BB48844207D10121801500F0CBFFDF
:100520000021A01500F0C7FF10BD00220288A84BD3
:1005300098420ED0AC4B98420BD0B0F1804F08D00F
:10054000A44B984205D0A44B984202D0A34B9842AA
:1005500004D14FF68F731A404B881A43A04B984230
:1005600007D0A04B984204D04FF6FF431A400B89A6
:100570001A4302804B68C3620B880385944B9842F0
:1005800002D0994B984201D18B7A03860123838252
:1005900070474FF0FF3141600021018001814180AF
:1005A000817270470185828270470A460021018866
:1005B0004FF68F73194011430180704741627047B5
:1005C000C16270470146486A70470146088D70470E
:1005D00021B1028842F00202028004E002884FF654
:1005E000FD731A400280704721B1028842F0040274
:1005F000028004E002884FF6FB731A4002807047C5
:1006000021B1028842F08002028004E002884FF6A5
:100610007F731A400280704702884FF6F7731A40C2
:10062000028002880A430280704702884FF6FF4327
:100630001A40028002880A430280704721B1028872
:1006400042F00102028004E002884FF6FE731A4075
:100650000280704770B5002400220023058C4FF6FD
:10066000FE7635400584028C8388048B4FF68F75A7
:100670002C40B51E2C400D882C43751E2A408D89B8
:100680002A434D882A43524DA84202D0564DA842D3
:1006900013D14FF6F7752A40CD892A434FF6FB75E3
:1006A0002A408D882A434FF6FF652B404FF6FF55B1
:1006B0002B400D8A2B434D8A2B43838004838D6806
:1006C0004563028470BD70B5002400220023058CB0
:1006D0004FF6EF7635400584028C8388048B48F60C
:1006E000FF752C404FF6FF452C400D884FF6FF76E6
:1006F00006EA05252C434FF6DF752A408D8906EA68
:1007000005152A434D8806EA05152A43304DA842AF
:1007100002D0354DA8421DD14FF67F752A40CD89B4
:100720004FF6FF7606EA05152A434FF6BF752A40B5
:100730008D8806EA05152A434FF6FF352B404FF208
:10074000FF752B400D8A06EA85052B434D8A06EA84
:1007500085052B43838004838D688563028470BD87
:1007600070B5002400220023058C4FF6FF6635404B
:100770000584028C8388848B4FF68F752C404FF64E
:10078000FC752C400D882C434FF6FF552A408D896F
:100790004FF6FF7606EA05252A434D8806EA052529
:1007A0002A430B4DA84202D00F4DA84238D14FF238
:1007B000FF752A40CD894FF6FF7606EA05252A43C4
:1007C0004FF6FF352A408D8806EA05252A4319E0B1
:1007D000000001400004004000080040000C004000
:1007E000001000400014004000040140004001409F
:1007F000004401400048014000180040001C004037
:10080000002000404EF6FF752B404DF6FF752B4043
:100810000D8A06EA05152B434D8A06EA05152B437A
:10082000838084838D68C563028470BD70B50022A7
:1008300000230024058C4EF6FF7635400584038C9A
:100840008488828B48F6FF752A404FF6FF452A4080
:100850000D884FF6FF7606EA05252A434DF6FF750B
:100860002B408D8906EA05352B434D8806EA053570
:100870002B43FE4DA84202D0FD4DA84208D14BF6B5
:10088000FF752C400D8A4FF6FF7606EA85152C433E
:10089000848082838D680564038470BD002101809B
:1008A0004180818081608181C18101824182704764
:1008B00070B50346002000241846183001258D40ED
:1008C000ACB21D8CA5431D8409B108290AD100EBE7
:1008D000610005684FF68F76354005600568154361
:1008E00005600FE00D1FC5F34E052844056848F666
:1008F000FF763540056005684FF6FF7606EA02266A
:100900003543056070BD4163704781637047C163C3
:100910007047016470470A460021018B4FF68F73C0
:1009200019401143018370470A460021018B48F6A4
:10093000FF7319404FF6FF7303EA02231943018343
:1009400070470A460021818B4FF68F73194011437F
:10095000818370470A460021818B48F6FF73194056
:100960004FF6FF7303EA02231943818370470A4657
:100970000021018B4FF6F773194011430183704733
:100980000A460021018B4FF2FF7319404FF6FF73A7
:1009900003EA02231943018370470A460021818B31
:1009A0004FF6F77319401143818370470A460021BF
:1009B000818B4FF2FF7319404FF6FF7303EA022356
:1009C0001943818370470A460021018B4FF6FB7360
:1009D00019401143018370470A460021018B4FF6ED
:1009E000FF3319404FF6FF7303EA022319430183D3
:1009F00070470A460021818B4FF6FB731940114363
:100A0000818370470A460021818B4FF6FF331940DE
:100A10004FF6FF7303EA02231943818370470A46A6
:100A20000021018B4FF67F731940114301837047FA
:100A30000A460021018BC1F30E014FF6FF7303EA52
:100A400002231943018370470A460021818B4FF628
:100A50007F7319401143818370470A460021818BBF
:100A6000C1F30E014FF6FF7303EA0223194381839A
:100A700070470A460021018C4FF6FD73194011435F
:100A8000018470470A460021018C4FF6F773194024
:100A90001143018470470A460021018C4FF6DF7331
:100AA00019404FF6FF7303EA02131943018470479C
:100AB0000A460021018C4FF67F7319404FF6FF73F1
:100AC00003EA02131943018470470A460021018C8E
:100AD0004FF6FF5319404FF6FF7303EA0223194301
:100AE000018470470A460021018C4FF2FF731940C0
:100AF0004FF6FF7303EA02231943018470470A4645
:100B00000021018C4DF6FF7319404FF6FF7303EA85
:100B1000023319430184704730B5002301248C400F
:100B2000A3B2048C9C430484048C02FA01F5ADB298
:100B30002C43048430BD30B5002304248C40A3B280
:100B4000048C9C430484048C02FA01F5ADB22C435E
:100B5000048430BD828B4FF2FF331A408283828B34
:100B60004FF6FF7303EA01231A4382837047F0B5FF
:100B70000C461546002100220026078C4EF6FF7C0D
:100B800007EA0C070784818B028C4FF6FF7707EA90
:100B9000043640F6FF4739404FF6FF7707EA05274E
:100BA00039434FF6FF7707EA0337394345F6FF77B6
:100BB0003A4046F480573A4381830284F0BD828BE9
:100BC0004FF6F3731A408283828B0A438283704705
:100BD000F0B50C461546002100220026078C4FF682
:100BE000FF6C07EA0C070784818B028C4FF6FF77B6
:100BF00007EA04264FF60C7739404FF6FF7707EAED
:100C000003172F4339434FF2FF573A4046F480779A
:100C10003A4381830284F0BD028B4FF2FF331A40C6
:100C20000283028B4FF6FF7303EA01231A43028308
:100C30007047F0B50C461546002100220026078CAF
:100C40004FF6EF7C07EA0C070784018B028C4FF606
:100C5000FF7707EA041640F6FF4739404FF6FF7763
:100C600007EA033739434FF6FF7703E000000140FE
:100C70000004014007EA052739434FF65F773A4001
:100C800046F010073A4301830284F0BD028B4FF611
:100C9000F3731A400283028B0A4302837047F0B554
:100CA0000C46154600210022068C4FF6FE773E408A
:100CB0000684018B028C4FF60C7631407E1C06EACE
:100CC00003162E4331434FF6F576324044F00106C9
:100CD000324301830284F0BD70B505460C4620887E
:100CE00050B92389A28861882846FFF7D8FFE18898
:100CF0002846FFF7CBFF25E0208804280AD1238966
:100D0000A28861882846FFF794FFE1882846FFF70C
:100D100083FF17E0208808280AD12389A2886188E8
:100D20002846FFF755FFE1882846FFF748FF09E00E
:100D30002389A28861882846FFF719FFE1882846A1
:100D4000FFF708FF70BD00210180418001218180F3
:100D50000021C180018170472DE9F04105460C4614
:100D600000260127608808B9022600E00026A08836
:100D7000012801D1022700E001272088A0B923899A
:100D8000A28861882846FFF78AFFE1882846FFF796
:100D90007DFF23893A4631462846FFF74AFFE1881E
:100DA0002846FFF739FF13E02389A2886188284687
:100DB000FFF73FFFE1882846FFF72EFF23893A46D9
:100DC00031462846FFF76BFFE1882846FFF75EFFB4
:100DD000BDE8F0810146486B70470146886B70475B
:100DE0000146C86B70470146086C70470A884B88FB
:100DF0001A438B881A43CB881A430B891A434B89B1
:100E00001A438B891A43A0F84420704700210180BF
:100E100041808180C180018141818181704731B1F0
:100E2000B0F8442042F40042A0F8442005E0B0F8B5
:100E30004420C2F30E02A0F84420704721B18288FA
:100E400042F00402828004E082884FF6FB731A406D
:100E50008280704721B1828842F00102828004E0E2
:100E600082884FF6FE731A40828070471AB18389D8
:100E70000B43838102E083898B43838170478182A6
:100E8000704702460020138A0B400BB1012000E09E
:100E900000207047CA430282704730B502460020E6
:100EA00000230024158A05EA0103958905EA010457
:100EB00013B10CB1012000E0002030BDCA43028212
:100EC000704741EA0203A0F8483070471AB183899D
:100ED0000B43838102E083898B438381704721B177
:100EE000828842F00802828004E082884FF6F7731D
:100EF0001A408280704701894FF6F87211400181D3
:100F000070470A46002101894FF68F73194011433B
:100F10000181704730B504460D4629462046FFF74B
:100F2000F0FF208940F00700208130BD2DE9F0411D
:100F300004460D4616461F46602D06D13B4601224B
:100F400031462046FFF775FE05E03B46012231465B
:100F50002046FFF7A4FE29462046FFF7D2FF20894E
:100F600040F007002081BDE8F08130B50C4600213B
:100F70000189C9B24FF6FF7505EA032515432543DC
:100F80002943018130BD2DE9F04105460E46174643
:100F90009846002443463A4631462846FFF7E5FF87
:100FA0002C894FF6F870044044F007044FF68F7018
:100FB000044044F070042C81BDE8F081F0B5044693
:100FC0000D4616461F463B46324629462046FFF749
:100FD000CCFF208940F480402081F0BD82884FF60C
:100FE0008F731A40828082880A4382807047028908
:100FF0004FF6F8731A40028102890A430281704752
:1010000002894FF67F731A40028102890A430281E6
:101010007047F0B50C4615461E46002100220023FD
:101020000189028B038C4FF6F877394021434FF644
:10103000FC473A4040F201173A434FF6DD773B4018
:101040004FF6FF7707EA06172F433B4301810283E0
:101050000384F0BD21B1828842F08002828004E0E6
:1010600082884FF67F731A4082807047A0F8501034
:1010700070470000FA48006840F00100F849086035
:101080000020F74908310860F5480068F549084034
:10109000F3490860F448091D0860081F006820F43F
:1010A0008020091F08600020ED490C31086070475E
:1010B0000021EB4A921C117011460870704710B560
:1010C00001460022002300204A11012A02D1E44CEB
:1010D000236808E0022A03D1E14C7034236802E05F
:1010E000DF4C7434236801F01F02012494401C403B
:1010F0000CB1012000E0002010BD38B500200090A8
:101100000024002500BF3120FFF7D9FF05460098D5
:10111000401C00900098B0F5A06F01D0002DF2D0D7
:101120003120FFF7CCFF08B1012400E00024204665
:1011300038BD01460020CA4A106820F0F80040EA95
:10114000C10010607047C949086070470021C44A57
:10115000703211701170012802D004280AD104E005
:101160000121BF4A7032117005E00521BC4A70327E
:10117000117000E000BF00BF7047BD4908607047B4
:1011800070B5049C41EA82150126C6EB530645EA78
:101190000645054345EA0465B14E361D356070BD10
:1011A000B24908667047820142EA0172AC4B84334F
:1011B0001A607047AD4988667047AC49C86470478B
:1011C00002460020A64B0833186820F0EC6042EA83
:1011D00001031843A24B08331860704702460020F1
:1011E0009F4B0833186820F0784042EA0103184307
:1011F0009B4B08331860704701460020984A08321C
:10120000106820F0030008431060704794480830CD
:10121000006800F00C00704701460020904A083238
:10122000106820F0F000084310607047014600206D
:101230008B4A0832106820F4E05008431060704771
:1012400001460020864A0832106820F4604040EAD7
:10125000C10010607047F0B5002100220024022573
:10126000002602237E4F08373F6807F00C0121B1AA
:10127000042905D0082937D105E07E4F076036E004
:101280007D4F076033E0764F3F1D3F68C7F38056C0
:10129000734F3F1D3F6807F03F036EB1764FB7FBBA
:1012A000F3F7DFF8BCC10CF1040CDCF800C0CCF3A0
:1012B000881C07FB0CF40CE06E4FB7FBF3F7DFF86C
:1012C000A0C10CF1040CDCF800C0CCF3881C07FBB7
:1012D0000CF4634F3F1D3F68C7F301477F1C7D003F
:1012E000B4FBF5F7076002E0624F076000BF00BF84
:1012F0005B4F08373F6807F0F00109095F4F7A5CE0
:101300000768D7404760564F08373F6807F4E051F9
:10131000890A5A4F7A5C4768D7408760504F083730
:101320003F6807F46041490B544F7A5C4768D740E7
:10133000C760F0BD002100F44072B2F5407F0AD1D1
:10134000474A0832116821F4F8114D4A024011430E
:10135000434A08321160424A70321268C0F30B03EC
:101360001A433F4B70331A60704741494439086053
:1013700070473F49403908607047424908607047EC
:1013800039B1374A303212680243354B30331A6074
:1013900006E0334A303212688243314B30331A60F0
:1013A000704739B12E4A3432126802432C4B343321
:1013B0001A6006E02A4A343212688243284B3433DA
:1013C0001A60704739B1264A383212680243244BFA
:1013D00038331A6006E0224A383212688243204BC2
:1013E00038331A60704739B11D4A403212680243DF
:1013F0001B4B40331A6006E0194A403212688243A0
:10140000174B40331A60704739B1154A443212689D
:101410000243134B44331A6006E0114A4432126807
:1014200082430F4B44331A60704739B10C4A103273
:10143000126802430A4B10331A6006E0084A103261
:1014400012688243064B10331A607047E1B1044AB8
:10145000143212680243024B14331A6019E0000080
:1014600000380240FFFFF6FE103000240000474223
:10147000800E47420024F40040787D0100000020E7
:10148000FFFCFF0F5C0147425B4A126882435A4BE4
:101490001A60704739B1584A121D12680243564B00
:1014A0001B1D1A6006E0544A121D12688243524BFB
:1014B0001B1D1A60704739B14F4A0C321268024343
:1014C0004D4B0C331A6006E04B4A0C3212688243D3
:1014D000494B0C331A60704739B1474A10321268D1
:1014E0000243454B10331A6006E0434A103212683B
:1014F0008243414B10331A60704739B13E4A3C3247
:10150000126802433C4B3C331A6006E03A4A3C32D4
:1015100012688243384B3C331A60704739B1364AFF
:10152000403212680243344B40331A6006E0324ABC
:10153000403212688243304B40331A60704739B1F1
:101540002D4A4432126802432B4B44331A6006E0A2
:10155000294A443212688243274B44331A60704749
:1015600039B1254A4C3212680243234B4C331A607E
:1015700006E0214A4C32126882431F4B4C331A60FA
:10158000704739B11C4A5032126802431A4B50332B
:101590001A6006E0184A503212688243164B5033E4
:1015A0001A60704739B1144AD21F12780243124BA5
:1015B000DB1F1A7006E0104AD21F127882430E4BCE
:1015C000DB1F1A7070470C486030006840F0807074
:1015D000094960310860704701460020064A083A10
:1015E00012680A400AB1012000E000207047024959
:1015F000891F0870704700001438024010B5044677
:10160000FE48844209D101214806FFF754FF00211A
:101610004FF00070FFF74FFF08E001218806FFF749
:101620004AFF00214FF08060FFF745FF10BD30B545
:10163000024600200023146824F002041460146899
:1016400044F00104146000E05B1C546804F00104E1
:101650001CB94FF6FF74A342F6D1546804F001049C
:101660000CB900206CE08C79012C04D1146844F092
:101670008004146003E0146824F080041460CC79C2
:10168000012C04D1146844F04004146003E0146891
:1016900024F0400414600C7A012C04D1146844F046
:1016A0002004146003E0146824F0200414604C7AD1
:1016B000012C04D1146844F01004146003E0146891
:1016C00024F0100414608C7A012C04D1146844F0C6
:1016D0000804146003E0146824F008041460CC7A51
:1016E000012C04D1146844F00404146003E014686D
:1016F00024F0040414608C78A407CD7844EA0564CF
:101700000D7944EA05444D7944EA05540D886D1E6F
:101710002C43D461146824F001041460002300E019
:101720005B1C546804F001041CB14FF6FF74A34223
:10173000F6D1546804F001040CB1002000E001204F
:1017400030BD10B50021837A012202FA03F1AC4AC0
:10175000126842F00102AA4B1A60A94A1C321268B0
:101760008A43A74B1C331A60027BCAB9A44A0C32C5
:1017700012688A43A24B0C331A604288C38842EA3B
:1017800003439F4A4032847A42F834300288838887
:1017900042EA03439A4A4032847A02EBC40253601D
:1017A000027B012A19D1964A0C3212680A43944BE3
:1017B0000C331A604288038842EA0343904A40325D
:1017C000847A42F83430C288838842EA03438C4AE0
:1017D0004032847A02EBC4025360C27A3AB9884A32
:1017E000121D12688A43864B1B1D1A6006E0844A4C
:1017F000121D12680A43824B1B1D1A60028932B9FE
:101800007F4A143212688A437D4B14331A6002896E
:10181000012A06D17A4A143212680A43784B1433EB
:101820001A60427B012A06D1754A1C3212680A43AB
:10183000734B1C331A60724A126822F00102704B1B
:101840001A6010BD00218171C171017241728172F3
:10185000C1728170C17003210171022141710121A6
:10186000018070476649096841F00101644A1160CE
:101870001146096843F60E729143614A11601146A0
:10188000096841EA002111601146096821F001014F
:101890001160704721B1026842F48032026003E0B7
:1018A000026822F4803202607047E1B1026842F0BF
:1018B000800202604FF4C272125842F480734FF4F7
:1018C000C27213504FF4CA72125842F480734FF42C
:1018D000CA7213504FF4D272125842F480734FF40C
:1018E000D27213501BE0026822F0800202604FF4B3
:1018F000C272125822F480734FF4C27213504FF424
:10190000CA72125822F480734FF4CA7213504FF403
:10191000D272125822F480734FF4D272135070476F
:1019200010B502460020936803F08063B3F1806F26
:1019300000D110E0936803F00063B3F1006F01D1B0
:10194000012008E0936803F08053B3F1805F01D178
:10195000022000E00420042879D002F5C07303EBD4
:1019600000131B6803F0010402F5C07303EB0013BE
:101970001C600B7A7BB94B7A0C8843EA445302F51E
:10198000C07404EB00142468234302F5C07404EB14
:101990000014236010E00B7A4C6843EAC4034C7ACD
:1019A000234302F5C07404EB00142468234302F5BA
:1019B000C07404EB001423608B7A03F00F038B7266
:1019C00002F5C07303EB00135B6823F00F0402F50C
:1019D000C07303EB00135C6002F5C07303EB0013EC
:1019E0005B688C7A234302F5C07404EB00146360D7
:1019F0008B7B1C064B7B44EA034403E000640040FD
:101A0000006600400B7B44EA0323CC7A234302F5B3
:101A1000C07404EB0014A3608B7C1C064B7C44EA6E
:101A200003440B7C44EA0323CC7B234302F5C074BC
:101A300004EB0014E36002F5C07303EB00131B68B2
:101A400043F0010402F5C07303EB00131C6010BDEA
:101A500010B50246002321B1012907D002290FD178
:101A600009E09068F94C00EA04030BE09068F84C38
:101A700000EA040306E09068F64C00EA040301E083
:101A8000002300BF00BFF44C181BA34216D007DC94
:101A900083B16FF08060184470B1022818D111E052
:101AA000B0F5007F10D0ED4C204448B1B0F5003FB8
:101AB0000ED10BE002230DE000230BE0002309E030
:101AC000002307E0012305E0012303E0012301E0F7
:101AD000002300BF00BFD8B210BD21B1012907D03B
:101AE00002290FD109E0826842F0800282600AE098
:101AF000826842F40042826005E0826842F400029B
:101B0000826000E000BF00BF704710B500F5D873D9
:101B100003EB01131B6803F004031372137A53B928
:101B200000F5D87303EB01131B6840F2FF7404EA5D
:101B30005353136009E000F5D87303EB01131B68DE
:101B40006FF0604404EAD303536000F5D87303EBED
:101B500001131B6803F00203537200F5D87303EB03
:101B600001135B6803F00F03937200F5D87303EB66
:101B700001135B681B0AD37400F5D87303EB0113E0
:101B80009B68D37200F5D87303EB01139B681C0AA2
:101B9000147300F5D87303EB01139B681C0C54738A
:101BA00000F5D87303EB01139B681B0E937300F5CC
:101BB000D87303EB0113DB68D37300F5D87303EB21
:101BC0000113DB681C0A147400F5D87303EB0113CE
:101BD000DB681C0C547400F5D87303EB0113DB684D
:101BE0001B0E937421B9C36843F02003C36003E064
:101BF000036943F02003036110BD21B9C26842F0BC
:101C00002002C26003E0026942F0200202617047D4
:101C10000246002019B9D36803F0030006E0012949
:101C200003D1136903F0030000E00020704710B5F2
:101C300002460B4600204FF6FF71BBB9146824F032
:101C4000020444F00104146000E0491E546804F0EA
:101C50000304012C01D00029F7D1546804F00304D7
:101C6000012C01D0002032E0012030E0012B13D103
:101C7000146824F00304146000E0491E546804F062
:101C800003040CB10029F8D1546804F003040CB12A
:101C900000201CE001201AE0022B17D1146824F068
:101CA000010444F00204146000E0491E546804F08A
:101CB0000304022C01D00029F7D1546804F0030476
:101CC000022C01D0002002E0012000E0002010BD25
:101CD000014600200A6822F0010242F002020A6076
:101CE0004A6802F00302022A00D10120704701462F
:101CF0004FF6FF7200200B6823F002030B6000E038
:101D0000521E4B6803F00203022B01D1002AF7D1C7
:101D10004B6803F00203022B00D0012070470146FC
:101D200000208A6902F070007047014600208A692D
:101D3000100E7047014600208A69C2F307407047C1
:101D40001AB143690B43436102E043698B4343612A
:101D5000704710B50246002001F4700343B1936947
:101D6000C1F3130423400BB101202DE000202BE030
:101D700001F0807343B15368C1F3130423400BB1E6
:101D8000012021E000201FE001F0006343B19368CF
:101D9000C1F3130423400BB1012015E0002013E030
:101DA00001F0007343B1D368C1F3130423400BB1B6
:101DB000012009E0002007E01369C1F31304234068
:101DC0000BB1012000E0002010BD0022244B9942FD
:101DD00002D10023836111E0C1F3130201F000730B
:101DE0000BB1C2600AE001F080630BB1026105E053
:101DF00001F000630BB1826000E042607047024670
:101E0000002002EA01030BB1012000E0002070472E
:101E100070B504460D46002660692840002872D03F
:101E2000B5F5807F69D01DDC082D42D006DC012D80
:101E30002DD0022D31D0042D7FD134E0102D3ED095
:101E4000202D42D0402D78D145E000000300000451
:101E50000003000800000310000100080001FFF764
:101E60007000F030B5F5004F61D009DCB5F5007FAA
:101E70004AD0B5F5806F4DD0B5F5006F5DD150E01B
:101E8000B5F5803F2DD0B5F5003F56D12FE0A068C5
:101E90005549FFF7B4FF064651E0E0680321FFF71C
:101EA000AEFF06464BE0E0680821FFF7A8FF0646B4
:101EB00045E0E0681021FFF7A2FF06463FE02069F9
:101EC0000321FFF79CFF064639E020690821FFF750
:101ED00096FF064633E020691021FFF790FF064683
:101EE0002DE060680821FFF78AFF064627E060685A
:101EF0001021FFF784FF064621E0A0690121FFF7CA
:101F00007EFF06461BE01BE0A0690221FFF777FF7A
:101F1000064614E0A0690421FFF771FF06460EE0B3
:101F20000BE0A0697021FFF76AFF064607E06068D2
:101F30000421FFF764FF064601E0002600BF00E031
:101F40000026304670BDB1F5007F3AD00FDC202965
:101F500028D006DC01291CD004291DD0082940D135
:101F60001DE0402921D0B1F5807F3AD126E0B1F5BE
:101F7000004F31D006DCB1F5806F25D0B1F5006F90
:101F80002FD124E0B1F5803F12D0B1F5003F28D128
:101F900011E0154A826025E00822C26022E010228A
:101FA000C2601FE0082202611CE01022026119E0F9
:101FB0000822426016E01022426013E004224260D0
:101FC00010E0042242600DE0042242600AE0002298
:101FD00082610422426005E00022826104224260A4
:101FE00000E000BF00BF70470101010010B50446CA
:101FF0008C48844208D101210846FFF716FA0021D7
:102000000120FFF712FA5EE08748844208D10121DF
:102010000220FFF70AFA00210220FFF706FA52E039
:102020008248844208D101210420FFF7FEF90021F3
:102030000420FFF7FAF946E07D48844208D10121E7
:102040000820FFF7F2F900210820FFF7EEF93AE047
:102050007848844208D101211020FFF7E6F90021D9
:102060001020FFF7E2F92EE07348844208D10121E5
:102070002020FFF7DAF900212020FFF7D6F922E02F
:102080006E48844208D101214020FFF7CEF900219B
:102090004020FFF7CAF916E06948844208D10121BF
:1020A0008020FFF7C2F900218020FFF7BEF90AE087
:1020B0006448844207D101218015FFF7B6F9002159
:1020C000A015FFF7B2F910BDF0B50A4600210023B4
:1020D000002400BF3DE0012505FA01F3156805EA7B
:1020E00003049C4234D105684F000326BE40B5432B
:1020F000056015794E00B5400668354305601579D1
:10210000012D02D01579022D16D185684F000326C6
:10211000BE40B543856055794E00B540866835436D
:102120008560456801268E40B543456045689679CF
:102130008E40B6B235434560C5684F000326BE40A9
:10214000B543C560D5794E00B540C6683543C56016
:10215000491C1029BFD3F0BD4FF6FF71016000216B
:10216000017141718171C171704708B54FF48032BE
:102170000092009A0A430092009AC261C161009ADB
:10218000C261C2690092C269009208BD0246002085
:1021900013690B400BB1012000E00020704701469D
:1021A000086980B270470246002053690B400BB1AA
:1021B000012000E0002070470146486980B2704766
:1021C00001837047418370470AB1018300E0418376
:1021D00070474161704742694A4042617047F0B5BB
:1021E000002300244D07ED0E02FA05F3CE1000F196
:1021F000200555F826504E07F70E0F26BE40B54372
:10220000CF1000F1200646F82750CE1000F120052F
:1022100055F8265045EA0304CE1000F1200545F894
:102220002640F0BD000002400004024000080240C9
:10223000000C02400010024000140240001802404E
:10224000001C024000200240016821F001010160F1
:102250000021016041608160C16001612121416113
:10226000DB49884204D13D21D94A103A91608CE083
:10227000D7491831884205D14FF47461D44A103AD5
:10228000916082E0D2493031884205D14FF4741117
:10229000CF4A103A916078E0CD494831884205D163
:1022A0004FF07461CA4A103A91606EE0C8496031DB
:1022B000884204D1C749C64A103AD16065E0C44992
:1022C0007831884204D1C449C14A103AD1605CE0F7
:1022D000BF499031884204D1C049BD4A103AD1600B
:1022E00053E0BB49A831884205D14FF03D51B84A6F
:1022F000103AD16049E0BA49884204D13D21B84A38
:10230000083A116041E0B6491831884205D14FF4CE
:102310007461B34A083A116037E0B14930318842FC
:1023200005D14FF47411AE4A083A11602DE0AC4962
:102330004831884205D14FF07461A94A083A1160CA
:1023400023E0A7496031884204D1A249A44A121F60
:1023500011601AE0A2497831884204D19E49A04A0E
:10236000121F116011E09E499031884204D19B49AF
:102370009B4A121F116008E09949A831884204D194
:102380004FF03D51964A121F1160704710B5002260
:102390000268944B1A40CC680B6823434C69234372
:1023A0008C692343CC6923430C6A23434C6A23433F
:1023B0008C6A23434C6B23438C6B23431A43026088
:1023C000426922F00702D1E90B3423431A434261E8
:1023D0000B6943604B6883608B68C36010BD00214C
:1023E000016041608160C160016141618161C161E1
:1023F000016241628162C16201634163816370472E
:1024000021B1026842F00102026003E0026822F09A
:1024100001020260704721B1026842F4004202608A
:1024200003E0026822F400420260704721B10268B2
:1024300042F02002026003E0026822F02002026003
:102440007047416070470146486880B2704722B1CA
:10245000036843F40023036003E0036823F40023CC
:1024600003600161704721B1026842F4802202607A
:1024700003E0026822F48022026070470AB1016121
:1024800000E0C1607047014600200A6802F40022A3
:102490000AB1012000E000207047014600200A68D0
:1024A00002F001020AB1012000E00020704701465D
:1024B00000204A6902F03800704730B503460A46EA
:1024C00000200024464DAB4202D24149103901E0C0
:1024D0004349103902F000550DB14C6800E00C681A
:1024E000414D2C4004EA02050DB1012000E000201E
:1024F00030BD02463A4B9A4202D23548103801E0CC
:102500003748103801F000531BB1374B0B40C36004
:1025100002E0354B0B408360704710B501F080033B
:102520004BB122B1436943F08003436103E0436947
:1025300023F08003436180290BD02AB1036801F0A6
:102540001E042343036004E0036801F01E04A34358
:10255000036010BD70B50246002000240025204E07
:10256000B24202D21A4B103B01E01D4B103B1F4EF2
:102570000E4036B11E2606EAD124166806EA040586
:1025800002E0566906F0800501F000560EB15C6865
:1025900000E01C68144E344004EA010616B10DB187
:1025A000012000E0002070BD02460D4B9A4202D28D
:1025B0000748103801E00A48103801F000531BB1F9
:1025C000094B0B40C36002E0074B0B408360704730
:1025D000106002403D000020400F002000003D2020
:1025E000106402403F801CF07D0F7D0F3C0F3C0FBC
:1025F00010B50446F748844208D101211020FEF7A7
:102600006BFF00211020FEF767FF3EE0F248844296
:1026100009D101214804FEF74EFF00214FF400309C
:10262000FEF749FF31E0ED48844209D101218804D9
:10263000FEF741FF00214FF48020FEF73CFF24E02D
:10264000E748844209D10121C804FEF734FF002184
:102650004FF40020FEF72FFF17E0E248844209D133
:1026600001210805FEF727FF00214FF48010FEF737
:1026700022FF0AE0DC48844207D101212020FEF736
:102680002BFF00212020FEF727FF10BD2DE9FF477B
:1026900005460E460024A14600BFA046B08900B101
:1026A00000BF2C8A24F44054F08804432C82AC8967
:1026B00041F20C608443B088318908437189084332
:1026C0000443AC81AC8A24F44074B0890443AC82E6
:1026D0006846FEF7C0FDBF48854202D0C248854229
:1026E00002D1DDF80C9001E0DDF80890A88900F433
:1026F000004040B109EBC90000EB09103168490006
:10270000B0FBF1F707E009EBC90000EB09103168F5
:102710008900B0FBF1F76420B7FBF0F00401200959
:10272000642101FB1078A88900F4004040B13220F8
:1027300000EBC800B0FBF1F000F00700044308E034
:10274000322000EB08106421B0FBF1F000F00F0024
:1027500004432C81BDE8FF874FF41651016000212E
:102760008180C18001810C214181002181817047DC
:1027700010B502460020108A20F470600B884C8847
:1027800023438C882343CC8823431843108210BDF5
:102790000021018041808180C180704721B1828900
:1027A00042F40052828104E082894DF6FF731A40A0
:1027B00082817047028B02F47F420283028B0A43BC
:1027C0000283704721B1828942F40042828103E092
:1027D0008289C2F30E028281704721B1828A42F45B
:1027E0000062828204E0828A4FF2FF731A40828282
:1027F0007047C1F308028280704701468888C0F3A1
:1028000008007047028A4FF6F0731A400282028A6B
:102810000A430282704721B1828942F0020282811A
:1028200004E082894FF6FD731A40828170478289E5
:102830004FF2FF731A40828182890A438281704776
:10284000028A4FF6DF731A400282028A0A4302822A
:10285000704721B1028A42F48042028204E0028A77
:102860004BF6FF731A4002827047818941F00101E3
:102870008181704721B1828A42F00802828204E09D
:10288000828A4FF6F7731A4082827047028BD2B267
:102890000283028B42EA01220283704721B1828ABD
:1028A00042F02002828204E0828A4FF6DF731A40EF
:1028B0008282704721B1828A42F01002828204E053
:1028C000828A4FF6EF731A4082827047828A4FF6EF
:1028D000FB731A408282828A0A438282704721B146
:1028E000828A42F00202828204E0828A4FF6FD73FD
:1028F0001A40828270471AB1838A0B43838202E0B6
:10290000838A8B4383827047F0B5034600240026F8
:102910000025002040F66A17B94200D100BF1846D2
:10292000C1F3421401F01F06012707FA06F5012C36
:1029300001D10C3004E0022C01D1103000E0143041
:102940001AB107682F43076002E00768AF430760CA
:10295000F0BD02460020B1F5007F00D100BF138812
:102960000B400BB1012000E00020704701F4007221
:10297000B2F5007F00D100BFCA430280704770B536
:102980000246002400230025002040F66A16B142CA
:1029900000D100BFC1F3421501F01F03012606FA62
:1029A00003F3012D02D19689334006E0022D02D1B6
:1029B000168A334001E0968A33400C12012606FA4B
:1029C00004F41688344013B10CB1012000E000205B
:1029D00070BD00000010014000440040004800406D
:1029E000004C0040005000400014014010B500228F
:1029F000002340F66A14A14200D100BF0A1201244C
:102A00009440A3B2DC43048010BD00000CB500204C
:102A1000019000907648006840F480307449086066
:102A200000BF7348006800F4003000900198401C1B
:102A30000190009818B90198B0F5A06FF1D16C48D9
:102A4000006800F4003010B10120009001E0002087
:102A500000900098012846D165484030006840F059
:102A600080506349403108606248006840F480400B
:102A7000604908605E48083000685D4908310860B8
:102A80000846006840F4004008600846006840F4CA
:102A9000A05008605848091F0860081F006840F0EF
:102AA0008070091F086000BF5148006800F0007086
:102AB0000028F9D040F20560504908604C480830C1
:102AC000006820F003004A490831086008460068A1
:102AD00040F00200086000BF45480830006800F080
:102AE0000C000828F8D10CBD10B54548006840F42A
:102AF0007000434908603E48006840F001003C49CE
:102B0000086000203A4908310860394800683D49AA
:102B10000840374908603C48091D0860081F0068E4
:102B200020F48020091F0860002031490C31086022
:102B3000FFF76CFF4FF0006031498039086010BD2D
:102B400070B500200022022300240221284D083500
:102B50002D6805F00C0020B1042806D0082834D1D7
:102B600007E02A4D2A4E356033E02A4D284E356065
:102B70002FE01F4D2D1D2D68C5F380541C4D2D1DBC
:102B80002D6805F03F0154B1224DB5FBF1F5184E0B
:102B9000361D3668C6F3881605FB06F209E01B4DA4
:102BA000B5FBF1F5124E361D3668C6F3881605FBE7
:102BB00006F20F4D2D1D2D68C5F301456D1C6B00F0
:102BC000B2FBF3F5124E356003E0104D104E356048
:102BD00000BF00BF064D08352D68C5F303150E4E26
:102BE000705D0B4D2D68C540094E356070BD00000D
:102BF000003802400070004019544007003C024079
:102C000088ED00E0FFFFF6FE103000240024F40001
:102C10001000002040787D01140000200648804705
:102C200006480047FEE7FEE7FEE7FEE7FEE7FEE7B1
:102C3000FEE7FEE7FEE7FEE7E92A00088901000853
:102C400010B503F04FFC012801D004F0F9FD10BDD0
:102C500070B504460420FDF793FB32480470254606
:102C60004FF47A70454301202F4908804FF0E0204F
:102C7000006940F002004FF0E0210861084645611C
:102C8000006940F00100086170BD70B50346002284
:102C90004FF0E0267569234E367803FB06F44FF0BB
:102CA000E026B16910E04FF0E026B06988420BD011
:102CB000884202D20E1A324402E02E1A0E443244E6
:102CC0000146A24200D300E0EDE700BF70BD30B581
:102CD0000446002504E04FF47A70FFF7D6FF6D1C20
:102CE000A542F8D330BD70B5044603F0FBFB0128C4
:102CF00011D00D480088844206DB0B48008894FB05
:102D0000F0F5284602F0F3FD0748008894FBF0F147
:102D100000FB114084B24FF47A7104FB01F0FFF71D
:102D2000B4FF70BD240000202600002008B5262036
:102D30008DF8000005208DF8010000208DF80200BC
:102D400001208DF803006846FDF7CDFA27208DF8A5
:102D5000000005208DF8010000208DF80200012000
:102D60008DF803006846FDF7BEFA34208DF80000A8
:102D700004208DF8010000208DF8020001208DF85C
:102D800003006846FDF7AFFA14208DF8000001201B
:102D90008DF8010000208DF8020001208DF803005D
:102DA0006846FDF7A0FA40208DF8000001208DF85C
:102DB000010000208DF8020001208DF80300684614
:102DC000FDF791FA1C208DF8000005208DF8010018
:102DD00002208DF8020001208DF803006846FDF7FF
:102DE00082FA08BD002801DD014600E041420F29BA
:102DF00000DA0020B0F5257F01DD4FF4257010F5D5
:102E0000257F00DA8D48704702780A708278D200F8
:102E1000038842EA23224A7002799201438842EAF7
:102E200063128A700279CA7082795200B0F9043054
:102E300042EAA3220A71427A9201037A42EA031219
:102E4000C38842EAE3124A71827A8A714289120A7D
:102E5000CA71027B0A728289120A4A72827B8A7262
:102E6000C289120ACA72027C0A73427C4A73827C4B
:102E70008A73428A1212CA73027D0A74828A1212FB
:102E80004A74704770B505460C4605B104B970BD6B
:102E90002078617840EA0120C0F30A002880607839
:102EA000C010A17840EA4110C0F30A006880A07801
:102EB0008011E17840EA8100217940EA8120C0F365
:102EC0000A00A88020794010617940EAC110C0F35F
:102ED0000A00E88060790011800828726079C0F3E8
:102EE00001106872A079E17940EA012000B268819E
:102EF000207A617A40EA012001B2A981A07AE17AC0
:102F000040EA012001B2E981217B2974617B697467
:102F1000A07BE17B40EA01206882207C617C40EA62
:102F20000120A8822988A1F5806108B2FFF75AFF25
:102F300028806988A1F5806108B2FFF753FF688097
:102F4000A988A1F5806108B2FFF74CFFA880E98845
:102F5000A1F5806108B2FFF745FFE88000BF96E762
:102F600010B540F225513648FFF709FD18B1344835
:102F7000FFF743FC60E040F224413148FFF7FFFCDB
:102F8000002859D02E48FFF738FC2E48FFF77BFA6F
:102F90002D4908700846007838BB00212948FFF702
:102FA0002FFA2848FFF74FFAC0F12400274908807C
:102FB00013212448FFF745FA22484038006C40F4BA
:102FC000002020494039086421491E48FFF791FA42
:102FD00001211C48FFF714FA1C48008812282BD145
:102FE0001C491D48FFF74EFF26E000211548FFF75A
:102FF00007FA1448FFF727FAC0F1240013490880A4
:1030000024211048FFF71DFA0E484038006C20F4C8
:1030100000200C49403908640D490A48FFF769FA55
:1030200001210848FFF7ECF908480088122803D16D
:1030300008490948FFF726FF10BD00006CFDFFFF9F
:10304000004C004040600240290000202A0000207F
:10305000000C0010880100205C58002030B50346A9
:1030600005E013F8010B80EA02043E48025D081EE9
:10307000A1F10101F5D1104630BD70B505460C46F1
:1030800000260DB1022C01D8002070BD611EFF2268
:103090002846FFF7E3FF0646601E285CB04201D1D8
:1030A0000120F2E70020F0E770B505460C46002647
:1030B0000DB1022C00D870BD611EFF222846FFF71B
:1030C000CDFF0646601E2E5400BFF4E730B5034620
:1030D00013B94FF6FF7030BD09E013F8014B82EAD7
:1030E0000400C0B2204D35F8100080EA2222081EEC
:1030F000A1F10101F1D11046EDE770B505460C468E
:1031000000260DB1022C01D8002070BDA11E174869
:1031100002882846FFF7DAFF0646F1B2A01E285CB7
:10312000814206D1601E285CB0EB162F01D1012030
:10313000EBE70020E9E770B505460C4600260DB127
:10314000022C00D870BDA11E084802882846FFF74F
:10315000BDFF0646A01E2E54310A601E295400BF32
:10316000F0E7000089A800088AA900082C000020C8
:103170001CB501211420FEF703F94FF4C070009034
:1031800001208DF8040000208DF8060003208DF842
:10319000050069461148FEF797FF10200090694628
:1031A0000F48FEF791FF0620009000208DF80400E4
:1031B0008DF8060002208DF8070003208DF8050029
:1031C00069460748FEF780FF10210548FEF7F8FF23
:1031D00080210248FEF7F4FF1CBD000000100240F1
:1031E0000008024000B587B001210220FEF7C8F8B0
:1031F00001211020FEF708F9072206212F48FEF7CB
:10320000EEFF072211462D48FEF7E9FFC02001908E
:1032100002208DF8080000208DF80A0003208DF8A8
:10322000090001208DF80B0001A92448FEF74CFF8E
:103230004FF4E13003900020ADF81000ADF812001B
:10324000ADF814000C20ADF816000020ADF8180001
:1032500003A91B48FFF71AFA01211948FFF79EFA44
:1032600007B000BD10B5044600BF40211448FFF769
:1032700070FB0028F9D021461148FFF7BAFA10BDBB
:1032800070B504460D4600BF40210D48FFF761FBB5
:103290000028F9D0E1B20A48FFF7ABFA204670BD2A
:1032A00010B5044600BF20210548FFF752FB002857
:1032B000F9D00348FFF7A1FA10BD00000004024056
:1032C0000010014000B595B001218F48FEF758F875
:1032D00001218804FEF787F807220A218B48FEF7B0
:1032E0007EFF07220B218948FEF779FF4FF48060AB
:1032F0000F9002208DF8400000208DF842000FA9A9
:103300008248FEF7E1FE4FF400600F9002208DF836
:10331000400000208DF8420001208DF843000FA9E5
:103320007A48FEF7D1FE7A48FFF762F94FF4E130B0
:1033300011900020ADF84800ADF84A00ADF84C00FF
:103340000C20ADF84E000020ADF8500011A97048D7
:10335000FFF79CF9012240216D48FFF7CCFA0121CB
:103360006B48FFF71BFA40216948FFF7FFFA01227B
:1033700040F224416648FFF7C7FA6648FEF764FF4B
:103380004FF0006000906248001D0190624802907A
:103390000020039016200490002005904FF48060D8
:1033A00006900020079008904FF4807009904FF429
:1033B00040300A9000200B900C900D900E906946C2
:1033C0005448FEF7E3FF15B000BD08B55048001D96
:1033D0000088524908704E480088087000214D4806
:1033E000FFF70EF84B482838C06A162853D14A48D0
:1033F000007824284FD14848407D23284BD14648A7
:1034000080784549497840EA0120454908604248AA
:1034100000794149C97840EA0120414948603E4865
:1034200080793D49497940EA01203D4988603A4820
:10343000007A3949C97940EA01203949C8603648DB
:10344000807A3549497A40EA012035490861324895
:10345000007B3149C97A40EA0120314948612E4850
:10346000807B2D49497B40EA01202D4988612A480B
:10347000007C2949C97B40EA01202949C8612648C6
:10348000407C08622448807C48622348C07C886273
:103490002148007DC86223491E48FFF72AF800BF73
:1034A0001C48FEF7FAFF0028FAD116211948FEF74A
:1034B000C8FF01211748FEF7A3FF16482838C06A45
:1034C000162811D11848006870B16946164800687E
:1034D00001F00FFB009838B14FF08050134908609D
:1034E000BFF34F8FBFF36F8F08BD10B5044600BF09
:1034F00040210748FFF72DFA0028F9D0214604485B
:10350000FFF777F910BD0000020020000004024020
:103510000048004028600240C40100202E00002026
:10352000DC010020000C00101401002004ED00E07C
:1035300000B595B001213948FDF722FF0121C804EB
:10354000FDF751FF08220B213548FEF748FE4FF4E6
:1035500000600F9002208DF8400000208DF842009E
:1035600003208DF8410001208DF843000FA92C485D
:10357000FEF7AAFD2B48FFF73BF82B4811900020DF
:10358000ADF84800ADF84A004FF48060ADF84C004B
:103590000420ADF84E000020ADF8500011A92148DC
:1035A000FFF774F801211F48FFF7F8F801224021C6
:1035B0001C48FFF7A0F9012240F224411948FFF707
:1035C000A3F91A48FEF740FE4FF00060009015483E
:1035D000001D0190164802900020039012200490D4
:1035E000002005904FF4806006900020079008901E
:1035F0004FF4807009904FF440300A9000200B90F7
:103600000C900D900E9069460848FEF7BFFE012110
:103610000648FEF7F5FE15B000BD000004002000CE
:1036200000080240004C0040A086010040600240BB
:103630008801002000B595B001214805FDF7A0FEE6
:1036400001210820FDF79CFE01214804FDF7CBFE77
:1036500007220521FE48FEF7C2FD07220621FC488D
:10366000FEF7BDFD60200F9002208DF84000002085
:103670008DF8420003208DF8410001208DF84300B1
:103680000FA9F348FEF720FD4FF4E1301190002020
:10369000ADF84800ADF84A00ADF84C000C20ADF88C
:1036A0004E000020ADF8500011A9EA48FEF7EEFFE9
:1036B00001224021E748FFF71EF901228021E54859
:1036C000FFF719F90121E348FFF768F84021E148C5
:1036D000FFF74CF9012240F22441DE48FFF714F9CC
:1036E000DD48FEF7B1FD4FF000600090D948001DA5
:1036F0000190DA4802900020039078200490002086
:1037000005904FF480600690002008900790099083
:103710004FF480300A9000200B9003200C90002082
:103720000D900E906946CC48FEF730FE0121CA4844
:10373000FEF766FEC8481830FEF786FD4FF00060C1
:103740000090C448001D0190C5480290402003909D
:103750001C200490002005904FF48060069000200B
:10376000089007904FF48070099000020A900020A2
:103770000B9003200C9000200D900E906946B648E7
:103780001830FEF703FE01221021B3481830FEF76F
:10379000C4FE0121B0481830FEF732FE15B000BD5E
:1037A00010B5AC48001D0088AE490870A9480088D3
:1037B00008700021A848FEF723FEA8480078A52835
:1037C0001BD1A6488079C0B9A4484079012814D1FA
:1037D000A248C07900F00F00A34908709F48C07943
:1037E000000948709D48007AA04908709B48407ABB
:1037F0004870084600889C49488098480078A52869
:103800000AD19648807938B994484079022803D182
:103810009248C0799449087190480078A5283DD114
:103820008E488079012839D18C484079012835D1DA
:103830008A48C07900F003008D4908708748C07934
:10384000C0F3800048708548C079C0F3C00088701C
:103850008248C079C0F30010C8708048C079C0F3B6
:10386000411008717D48C079C00948717B48007AD1
:1038700000F0010088717948007AC0F34000C871F7
:103880007648007AC0F3810088727448007AC0F3E9
:10389000011008727148007A800948726F480078F8
:1038A000A52814D16D488079012810D16B48407942
:1038B00002280CD16948C0796E4908706748007ABF
:1038C00048706648407A88706448807AC870634857
:1038D00090F83000A52832D1604890F836000228D0
:1038E0002DD15E4890F83500012828D15B4890F82A
:1038F000370061490870594890F8380048705748B7
:1039000090F839005D490870544890F83A004870C2
:103910000846008858494880504890F8450000F013
:10392000010088774D4890F84500C0F34000C87703
:103930004A4890F84500C0F3800081F820004748CD
:103940000078A52851D14548807902284DD14348B7
:103950004079022849D14148C079494908703F4817
:10396000007A487008460088434988803B48407A7E
:10397000444908703948807A4870084600883E49B2
:10398000C8803648C07A404908703448007B487087
:103990003248407B88703148807BC870084690ED83
:1039A000000A354880ED020A2C48C07B3749087070
:1039B0002A48007C4870084600882F49888127489B
:1039C000407C334908702548807C48700846008850
:1039D0002949C8812148C07C2E4908701F48007DB4
:1039E000487008460088244908821C480078A528A9
:1039F00016D11A488079022812D118484079052832
:103A00000ED11648C079244908701448007A234919
:103A100008701248407A4870084600781E4948707D
:103A20000E480078A52811D10C48807902280DD1C4
:103A30000A484079062809D10848C07900F00F00EB
:103A40000D4988740548C0790009C874034827E007
:103A5000000C024000440040886002400C0200203C
:103A6000BC02002030000020320000204000002076
:103A70008402002038000020900200204200002034
:103A80004400002046000020480000204C00002098
:103A90004E000020500000203E0000205200002078
:103AA0000078A52832D1F348807902282ED1F14838
:103AB000407907282AD1EF48407AEF490870ED484D
:103AC000807A4870EB48C07A8870EA48007BC870FA
:103AD000E848C079012802D0022816D10AE0E64859
:103AE00090ED000AE54880ED050AE248007AE349D6
:103AF00008770AE0E04890ED000AE04880ED060A09
:103B0000DC48007ADD49487700BF00BFD94800781B
:103B1000A5285FD1D748807903285BD1D548407963
:103B2000012857D1D348C079562853D1D148007ABB
:103B300002284FD1CF48407A01284BD1CD48807A16
:103B4000F0BBCC48C07A072844D1CA48007BB8BB38
:103B5000C848407BCA490870C648807B4870084600
:103B600090ED000ABCEEC00A10EE100AC34948846A
:103B7000C048C07BC3490870BE48007C48700846F6
:103B800090ED000ABCEEC00A10EE100ABB49888412
:103B9000B848407CBC490870B648807C48700846EC
:103BA00090ED000ABCEEC00A10EE100AB349C884BA
:103BB000B048C07CB5490870AE48007D487000E050
:103BC00008E0084690ED000ABCEEC00A10EE100AAC
:103BD000AA490885AE49AF48FEF78BFC00BFAD4847
:103BE000FEF75BFC0028FAD17821AA48FEF729FCF1
:103BF0000121A848FEF704FC10BD2DE9FF4140F269
:103C000001344DF28015002600274FF013089B4821
:103C1000007811283AD2DFE800F039090D111519A2
:103C20001D393939392125292D313500012640F238
:103C300001172CE002264FF4817728E0032640F29A
:103C4000031724E004264FF4827720E0052640F293
:103C500005171CE006264FF4837718E00B2640F288
:103C6000111714E00C264FF4897710E00D2640F26E
:103C700013170CE00E264FF48A7708E00F2640F267
:103C8000151704E010264FF48B7700E000BF00BF4B
:103C90009DED000A804880ED000A9DED010A7F48F5
:103CA00080ED000A9DED020A7D4880ED000A9DF836
:103CB0000C007C490870A5207B49087081F80180C0
:103CC0004FEA1820887005217748FFF7EDF976490B
:103CD0004C71200A8871CD71280A08724E72300A20
:103CE0008872CF72380A08736B48007848736A4844
:103CF0004078887368488078C8736748C0780874CB
:103D000066480078487465484078887463488078CD
:103D1000C8746248C0780875614800784875604882
:103D2000407888755E488078C8755D48C0780876A8
:103D30005C48007848761C215B48FFF7FCF9BDE839
:103D4000FF8110B5594953481830FEF703FC80B184
:103D500001205749087308460FC8FFF74EFF554921
:103D60004C481830FEF7C5FB50494A481830FEF75A
:103D70001BFC10BD10B5044600BF40214E48FEF7A5
:103D8000E8FD0028F9D021464B48FEF732FD10BD72
:103D90002DE9F04106460F460024022540F20318A3
:103DA000A5204649087008464570280A88700521F4
:103DB0004248FFF779F9414981F805804FEA182018
:103DC0008871CE710F720B213C48FFF7B4F900BF28
:103DD00004E03A49085DFFF7CDFF641C0B2CF8DBCB
:103DE000BDE8F0812DE9F84F04460D4616461F4602
:103DF0004FF00E0840F2013B40F2562000904FF089
:103E000001094FF0070AA5202D490870084680F8DF
:103E100001804FEA1820887005212948FFF744F9EE
:103E2000274981F805B04FEA1B2088710098C871B6
:103E30000098000A0872084680F809904FEA192095
:103E40008872084680F80BA04FEA1A2008734C735A
:103E5000200A8873CD73280A08744E74300A887457
:103E6000CF74380A087517211548FFF764F9BDE8C3
:103E7000F88F00000C020020540000209002002067
:103E8000580000205C00002060000020640000203A
:103E9000000C002088600240680000206C000020B8
:103EA0007000002074000020BC0200200080202050
:103EB000D80200200000202000440040E80200203A
:103EC000F302002000B58BB001211020FDF758FA55
:103ED00001210846FDF798FA4FF4D44009900220DA
:103EE0008DF8280003208DF8290009A93548FEF730
:103EF000EBF8012209213348FEF771F901220B2169
:103F00003048FEF76CF901220D212E48FEF767F9C3
:103F100001220E212B48FEF762F9A720ADF8180008
:103F20000020ADF81A0044F61F6007900020ADF89D
:103F3000200006A92448FCF7F8FA7020ADF8040028
:103F40000120ADF806000020ADF808000A2003901B
:103F50000220ADF810000020ADF81200ADF81400FA
:103F60004FF48070ADF8160001A91748FCF772FBFA
:103F700001A91548FCF7A7FB01A91348FCF7F0FBC2
:103F800001A91148FCF752FC08210F48FCF7EFFC8F
:103F900008210D48FCF7F4FC08210B48FCF7FDFC58
:103FA00008210948FCF702FD01210748FCF728FB1E
:103FB00001210548FCF733FF01210348FCF73EFBD4
:103FC0000BB000BD00100240000001400EB5012101
:103FD0000846FDF708FA3120019042F2CF00ADF813
:103FE00000000020ADF80200ADF8080069464FF06F
:103FF0008040FCF79AFA012211469007FCF736FF41
:1040000001218807FCF71AFB0EBD10B501218807B6
:10401000FCF743FF012804D106480068401C05490D
:10402000086001218807FCF749FF01218807FCF798
:1040300031FF10BD7800002000B589B0012108468D
:10404000FDF79EF901214806FDF7CDF909220C2163
:104050002E48FEF7C4F809220B212C48FEF7BFF8C2
:104060004FF4C050009002208DF8040069462748A4
:10407000FEF72AF82648FDF7C1FA06A8FDF7E2FB8D
:1040800000208DF81E0001208DF81F0000208DF803
:1040900020008DF821008DF8220001208DF82300EA
:1040A00000208DF81A008DF81B0008208DF81C00E8
:1040B00003208DF81D00ADF8180006A91448FDF77F
:1040C000B6FA00208DF812008DF8130001208DF84B
:1040D00014000020ADF80800ADF80A00ADF80C009F
:1040E000ADF80E00ADF8100001208DF8150002A803
:1040F000FDF727FB012202210548FDF721FE0122E1
:1041000011460348FDF71CFE09B000BD0000024047
:104110000064004000B589B001210220FDF730F9AC
:1041200001218806FDF75FF901214806FDF75BF9DB
:1041300009220D212F48FEF752F809220C212D48A3
:10414000FEF74DF84FF44050009002208DF8040027
:1041500069462848FDF7B8FF2748FDF74FFA06A83B
:10416000FDF770FB00208DF81E0001208DF81F0068
:1041700000208DF820008DF821008DF8220001200C
:104180008DF8230000208DF81A008DF81B00082000
:104190008DF81C0003208DF81D00ADF8180006A94D
:1041A0001548FDF744FA0E208DF8120000208DF816
:1041B000130001208DF814000020ADF80800ADF8C0
:1041C0000A00ADF80C00ADF80E00ADF810000120AB
:1041D0008DF8150002A8FDF7B4FA01220221064865
:1041E000FDF7AEFD012211460348FDF7A9FD09B018
:1041F00000BD0000000402400068004000F108011A
:1042000041604FF0FF31816000F10801C160016140
:1042100000210160704700210161704742684A60D7
:1042200093688B60936859609160086103685B1CB8
:104230000360704710B502460B685C1C0CB910692E
:1042400007E002F1080000E04068446824689C42EE
:10425000FAD944684C604C68A160886041600A618A
:104260001468641C146010BD01460A69D1E901306C
:104270009860D1E9010358605068884201D188688C
:104280005060002008611068401E10601068704780
:1042900070B505460E462C462CB940F20312FAA121
:1042A000FEA005F04DF903F090FAD4E90F12206852
:1042B00001FB0200A0600020A06320686060E06B4A
:1042C000401E226C216800FB0211E160FF2084F88F
:1042D000440084F845009EB9206908B9012000E037
:1042E0000020A8B904F1100001F0FEFF80B14FF0EA
:1042F0008050EE490860BFF34F8FBFF36F8F07E028
:1043000004F11000FFF77AFF04F12400FFF776FFB5
:1043100003F07EFA012070BD2DE9F04106460D46FE
:1043200017469846069C0DB9246000E02760E663B6
:10433000256401212046FFF7ABFF84F85080002060
:10434000A064BDE8F0812DE9F84305460E4690468D
:104350000DB1012000E0002028B94FF4BB72CAA1C2
:10436000CEA005F0EDF80EB9002701E005FB06F739
:1043700007F1540003F04BF804464CB1A14609F193
:10438000540943464A46314628460094FFF7C4FF85
:104390002046BDE8F8832DE9F04104460F46154656
:1043A0004FF00008A66B206C48B9206800282CD17B
:1043B000A06802F000F980460020A06025E07DB9E9
:1043C0003946226C606804F019FD216C606808446D
:1043D0006060D4E90101884217D32068606014E06E
:1043E0003946226CE06804F009FD216CE068411A4E
:1043F000E1602168E068884203D2216CA068411A1C
:10440000E160022D01D106B1761E701CA06340460A
:10441000BDE8F0812DE9F3410D460098846C00273A
:104420002CB940F6453298A19CA005F089F8A06B04
:10443000E16B884201D2012000E0002028B940F65B
:10444000463291A195A005F07BF8A06BE16B884204
:104450001BD294F945602A4669462046FFF79BFF28
:104460000746701C60B9606A08B9012000E00020AE
:1044700050B904F1240001F037FF28B1012703E00F
:10448000701C40B284F8450000BF3846BDE8FC818E
:1044900070B5044603F099F994F945501AE0A06C00
:1044A00038B100212046FFF7B5FF88B102F008F8C7
:1044B0000EE0606A08B9012000E0002038B904F17C
:1044C000240001F011FF18B101F0FAFF00E003E051
:1044D000681E45B2002DE2DC00BFFF2084F84500D5
:1044E00003F096F903F071F994F9445010E0206953
:1044F00008B9012000E0002048B904F1100001F0E3
:10450000F3FE08B101F0DCFF681E45B200E001E0F7
:10451000002DECDC00BFFF2084F8440003F078F9A4
:1045200070BD70B5054603F050F9A86BE96B884281
:1045300001D1012400E0002403F06AF9204670BD97
:104540002DE9FF4782B0064688461D464FF0000918
:1045500034462CB940F2F1224BA150A004F0F0FFF8
:10456000B8F1000F01D1206C08B9012000E0002053
:1045700028B940F2F22244A148A004F0E1FF022D44
:1045800002D1E06B012801D1012000E0002028B910
:1045900040F2F3223CA141A004F0D2FF01F0A2FFBF
:1045A00008B9049808B9012000E0002028B940F2B9
:1045B000F62235A139A004F0C3FF00BF03F005F9CE
:1045C000A06BE16B884201D3022D3FD1D4F838A013
:1045D0002A4641462046FFF7DEFE0746A06C90B112
:1045E000022D02D1BAF1000F2AD129462046FFF749
:1045F00011FF28B34FF080502C490860BFF34F8F54
:10460000BFF36F8F1CE0606A08B9012000E0002052
:1046100068B904F1240001F067FE88B14FF08050C2
:1046200022490860BFF34F8FBFF36F8F08E03FB19F
:104630004FF080501D490860BFF34F8FBFF36F8F5D
:1046400003F0E6F8012006B0BDE8F087049818B939
:1046500003F0DEF80020F6E7B9F1000F04D1684658
:1046600001F0EBFE4FF0010903F0D2F801F0DEF8A3
:1046700003F0ABF894F94400401C10B9002084F812
:10468000440094F9450013E02E2E5C467265655295
:10469000544F535C71756575652E63004572726F7A
:1046A000723A25732C25640D0A00000004ED00E029
:1046B000401C10B9002084F8450003F0A9F804A9B3
:1046C000684601F0C1FEF8B92046FFF72AFFA8B1FD
:1046D00004F11000049901F0A9FD2046FFF7D8FE6F
:1046E00000F0F9FF00287FF469AF4FF08050F749E0
:1046F0000860BFF34F8FBFF36F8F5FE72046FFF770
:10470000C7FE00F0E8FF59E72046FFF7C1FE00F0C2
:10471000E2FF002097E710B5044654B10020A060E6
:1047200020600021E16000231A4619462046FFF769
:1047300007FF10BD2DE9F04104460126002722465F
:1047400000210120FFF7FFFD05462846FFF7E3FFA4
:104750002846BDE8F08170B505462C463CB940F2CC
:104760005922AFF2DC01AFF2CC0004F0E9FE01F017
:10477000B6FEA16888420CD1E068401EE060E068A7
:1047800028B900231A4619462046FFF7D9FE01260C
:1047900000E00026304670BD01464A6A22B10A6B2D
:1047A0001268C2F1200000E00020704770B5054695
:1047B00003F00BF8A86B08B9012400E0002403F013
:1047C00027F8204670BD2DE9F34182B005464FF031
:1047D00000082C4600263CB940F29152AFF2581125
:1047E000AFF2481004F0ACFE206C08B9012000E0E4
:1047F000002038B940F29552AFF27411AFF2641054
:1048000004F09EFE01F06EFE08B9039808B901207D
:1048100000E0002038B940F29A52AFF29411AFF2A2
:10482000841004F08DFE00BF02F0CFFFA76BFFB134
:10483000781EA063206810B902F019F8A060206902
:1048400008B9012000E0002060B904F1100001F077
:104850004BFD38B14FF080509C490860BFF34F8F3B
:10486000BFF36F8F02F0D4FF012004B0BDE8F081E8
:10487000039880B90EB9012000E0002038B940F259
:10488000E152AFF2FC11AFF2EC1004F059FE02F06D
:10489000BFFF0020E9E7B8F1000F04D1684601F03E
:1048A000CCFD4FF0010802F0B3FF00F0BFFF02F0B3
:1048B0008CFF94F94400401C10B9002084F8440097
:1048C00094F94500401C10B9002084F8450002F01E
:1048D0009FFF03A9684601F0B7FD40BB2046FFF7E4
:1048E00065FFF0B1206838B902F06FFFA06801F0F1
:1048F00005FE064602F08CFF04F12400039901F046
:1049000095FC2046FFF7C4FD00F0E5FE00288BD1A2
:104910004FF080506D490860BFF34F8FBFF36F8F2A
:1049200082E72046FFF7B4FD00F0D5FE7CE7204685
:10493000FFF7AEFD00F0CFFE2046FFF737FF00285F
:10494000EED05EB102F041FF2046FFF725FF07469B
:104950003946A06801F087FE02F05AFF002084E784
:104960002DE9F04106460F4634463CB94FF4247217
:10497000AFF2EC21AFF2DC2004F0E2FD01F0AFFD7C
:10498000A168884204D1E068401CE060012508E08D
:1049900039462046FFF717FF054615B1E068401C71
:1049A000E0602846BDE8F08170B505460E460DB1C1
:1049B000012000E0002038B940F2D522AFF23831B2
:1049C000AFF2283004F0BCFDAE4201D8012000E077
:1049D000002038B940F2D622AFF25431AFF2443061
:1049E00004F0AEFD022200212846FFF7ACFC04468D
:1049F00004B1A663204670BD2DE9F05F80468A466B
:104A000015461E4644463CB940F2C332AFF28831E7
:104A1000AFF2783004F094FDBAF1000F01D1206CB0
:104A200008B9012000E0002038B94FF47172AFF2EC
:104A3000A831AFF2983004F083FD022E02D1E06B72
:104A4000012801D1012000E0002038B940F2C53230
:104A5000AFF2CC31AFF2BC3004F072FD02F008FFCF
:104A600000BF5021EFF3118081F31188BFF34F8F06
:104A7000BFF36F8F00BF0746A06BE16B884201D385
:104A8000022E2DD194F945B0324651462046FFF70B
:104A900082FC0BF10100D8B9A06C40B13146204630
:104AA000FFF7B8FCC8B1C5B10120286015E0606A05
:104AB00008B9012000E0002078B904F1240001F0D9
:104AC00013FC50B14DB10120286006E004ED00E078
:104AD0000BF1010040B284F845004FF0010901E0FC
:104AE0004FF0000900BF87F3118800BF4846BDE8BA
:104AF000F09F2DE9F04707460D463C463CB94FF480
:104B00008C62AFF27C41AFF26C4004F019FD206C76
:104B100008B9012000E0002038B940F26442AFF249
:104B20009841AFF2884004F00BFD206808B9A068F6
:104B300008B9012000E0002038B940F26942AFF224
:104B4000B841AFF2A84004F0FBFC02F091FE00BFB8
:104B50005021EFF3118081F31188BFF34F8FBFF322
:104B60006F8F00BF0646D4F83890E06B484529D9CE
:104B700094F945A009F10100A0630AF10100C8B948
:104B8000A06C40B100212046FFF744FCB8B1B5B19C
:104B90000120286013E0606A08B9012000E00020CD
:104BA00068B904F1240001F09FFB40B13DB1012040
:104BB000286004E00AF1010040B284F845004FF09B
:104BC000010801E04FF0000800BF86F3118800BF24
:104BD0004046BDE8F08770B504460D46206C70B1C4
:104BE000216CE0680144E160D4E90210884201D3FD
:104BF0002168E1602846226CE16804F0FFF870BD8E
:104C00002DE9F74183B005460E464FF000082C46CB
:104C10003CB94FF4A062AFF29051AFF2805004F073
:104C20008FFC0EB9206C08B9012000E0002038B9D3
:104C300040F20452AFF2B051AFF2A05004F080FC49
:104C400001F050FC08B9059808B9012000E00020E7
:104C500038B940F20952AFF2D051AFF2C05004F06F
:104C60006FFC00BF02F0B1FDA76BF7B131462046E3
:104C7000FFF7B1FF781EA063206908B9012000E0AA
:104C8000002060B904F1100001F02EFB38B14FF0A4
:104C90008050F8490860BFF34F8FBFF36F8F02F069
:104CA000B7FD012006B0BDE8F081059818B902F003
:104CB000AFFD0020F6E7B8F1000F04D101A801F024
:104CC000BCFB4FF0010802F0A3FD00F0AFFD02F0C5
:104CD0007CFD94F94400401C10B9002084F8440085
:104CE00094F94500401C10B9002084F8450002F0FA
:104CF0008FFD05A901A801F0A7FBF0B92046FFF739
:104D000055FDA0B104F12400059901F08FFA204669
:104D1000FFF7BEFB00F0DFFC0028A3D14FF080506E
:104D2000D4490860BFF34F8FBFF36F8F9AE72046D7
:104D3000FFF7AEFB00F0CFFC94E72046FFF7A8FB9F
:104D400000F0C9FC2046FFF731FD00288AD0002082
:104D5000A8E72DE9F74382B005460E464FF000085C
:104D60002C463CB94FF4CD62AFF2E461AFF2D460AF
:104D700004F0E6FB0EB9206C08B9012000E0002029
:104D800038B940F26C62AFF20071AFF2F06004F03B
:104D9000D7FB01F0A7FB08B9049808B9012000E08F
:104DA000002038B940F27162AFF22471AFF2147092
:104DB00004F0C6FB00BF02F008FDD4F83890B9F14A
:104DC000000F1ED0E76831462046FFF704FFE7607A
:104DD000606A08B9012000E0002060B904F12400F5
:104DE00001F082FA38B14FF08050A2490860BFF359
:104DF0004F8FBFF36F8F02F00BFD012005B0BDE8B0
:104E0000F083049818B902F003FD0020F6E7B8F12A
:104E1000000F04D1684601F010FB4FF0010802F0CA
:104E2000F7FC00F003FD02F0D0FC94F94400401CB4
:104E300010B9002084F8440094F94500401C10B9D2
:104E4000002084F8450002F0E3FC04A9684601F064
:104E5000FBFAF0B92046FFF7A9FCA0B104F1240049
:104E6000049901F0E3F92046FFF712FB00F033FC50
:104E70000028A0D14FF080507E490860BFF34F8FCB
:104E8000BFF36F8F97E72046FFF702FB00F023FC8C
:104E900091E72046FFF7FCFA00F01DFC2046FFF7E3
:104EA00085FC002887D00020A8E72DE9F05F0646A2
:104EB0008946174634463CB940F2FB62AFF63801EA
:104EC000AFF6280004F03CFBB9F1000F01D1206CD3
:104ED00008B9012000E0002038B940F2FC62AFF6CA
:104EE0005801AFF6480004F02BFB02F0C1FC00BFF4
:104EF0005021EFF3118081F31188BFF34F8FBFF37F
:104F00006F8F00BF0546D4F838A0BAF1000F22D049
:104F100094F944B049462046FFF75DFEAAF101002E
:104F2000A0630BF1010070B9206908B9012000E00D
:104F3000002068B904F1100001F0D6F940B13FB18A
:104F40000120386004E00BF1010040B284F8440015
:104F50004FF0010801E04FF0000800BF85F3118811
:104F600000BF4046BDE8F09F2DE9F0470646884661
:104F700034463CB940F25772AFF6F401AFF6E400A4
:104F800004F0DEFAB8F1000F01D1206C08B901205D
:104F900000E0002038B94FF4EB62AFF61411AFF621
:104FA000041004F0CDFA206C08B1012000E00020CC
:104FB00038B940F25972AFF63011AFF6201004F054
:104FC000BFFA02F055FC00BF5021EFF3118081F3CE
:104FD0001188BFF34F8FBFF36F8F00BF0546A06BE3
:104FE00048B1D4F80C9041462046FFF7F4FDC4F8D0
:104FF0000C90012700E0002700BF85F3118800BF57
:105000003846BDE8F08770B504463CB940F28A7274
:10501000AFF68C11AFF67C1004F092FA02F0D5FBDB
:10502000A56B02F0F5FB284670BD70B50446254619
:105030003DB940F29B72AFF6B011AFF6A01004F08C
:105040007FFA02F0C2FBD5E90E10461A02F0E0FB2F
:10505000304670BD70B5044625463DB940F2AC728D
:10506000AFF6DC11AFF6CC1004F06AFAAE6B304646
:1050700070BD000004ED00E0014600200EE0774A1C
:1050800002EBC00252688A4207D10022734B43F8F8
:10509000302003EBC0035A6002E0401C0828EED326
:1050A00000BF704770B5044625463DB940F2B7725F
:1050B000AFF62C21AFF61C2004F042FA2846FFF789
:1050C000DBFF284602F026FA70BD0146C86C704727
:1050D000C1647047014691F85000704770B50446AE
:1050E00026463EB940F60912AFF66421AFF65420C9
:1050F00004F026FAB06B08B9012500E00025284627
:1051000070BD70B5044626463EB940F63112AFF682
:105110008821AFF6782004F013FAB06BF16B884267
:1051200001D1012500E00025284670BD024600207F
:105130000BE04A4B53F8303033B9484B43F830104A
:1051400003EBC0035A6002E0401C0828F1D300BF03
:1051500070470246002000210AE0404B03EBC103E8
:105160005B68934203D13D4B53F8310002E0491C88
:105170000829F2D300BF70472DE9F04105460E46DD
:1051800017462C4602F021FB94F94400401C10B94C
:10519000002084F8440094F94500401C10B9002018
:1051A00084F8450002F034FBA06B28B93A4631463A
:1051B00004F1240001F07DF82046FFF769F9BDE80D
:1051C000F08170B50446002204212046FFF7BBF8A9
:1051D0000546284670BD70B504460E4602F0F5FA45
:1051E000A06C08B1002505E0A06B08B1002501E026
:1051F000A664012502F00CFB284670BD2DE9F041A4
:1052000005460F462E46B06CB84201D000240AE095
:10521000B06B08B1002406E002F0D7FA0020B064B9
:1052200002F0F6FA01242046BDE8F08138B50546C3
:105230000C4600200090224669462846FFF7E0FC15
:10524000009838BD38B50446002000900022694619
:105250002046FFF72AFE009838BD000074030020A6
:1052600010B5002407E004EB8401F84A02EB81004A
:10527000FEF7C4FF641C202CF5D3F548FEF7BEFFF3
:10528000F448FEF7BBFFF448FEF7B8FFF348FEF71B
:10529000B5FFF348FEF7B2FFED48F2490860ED486C
:1052A000F149086010BD10B5044602F08EFAEF48CF
:1052B0000068401CED490860ED48006840B9EC48C2
:1052C00004600846006801280DD1FFF7C9FF0AE015
:1052D000E848006838B9E6480068C06AE16A884270
:1052E00001D8E3480460E4480068401CE2490860D3
:1052F00008460068606494F82C1001208840DF495B
:1053000009680843DD490860E16A01EB8101CF4A81
:1053100002EB8100211DFEF781FF02F079FAD548EA
:10532000006868B1D2480068C06AE16A884207D262
:105330004FF08050D2490860BFF34F8FBFF36F8F9B
:1053400010BD2DE9F05F82460E4690469B460A9FAF
:105350000C9C2EB94FF45872CAA1CFA004F0F0F8FB
:105360004FEA8801A522206B03F05AFDA8F1010045
:10537000216B01EB800929F0070909F0070008B942
:10538000012000E0002028B94FF45D72BDA1C2A049
:1053900004F0D6F8002507E0715D04F134004155B2
:1053A000705D00B902E06D1C102DF5D300BF002127
:1053B00043200155202F00D31F27E762E764002018
:1053C0002065201DFEF727FF04F11800FEF723FFDC
:1053D0002461C7F12000A06164620020606584F848
:1053E00058005A465146484602F018F920600B987A
:1053F00008B10B980460BDE8F09F2DE9FF4F85B020
:10540000804689461746DDE912ABB80001F0FFFF80
:10541000064656B15C2001F0FAFF04460CB1266343
:1054200004E0304602F076F800E000247CB1002071
:10543000CDE900ABCDE902403A4649464046089BDB
:10544000FFF77FFF2046FFF72EFF012501E04FF019
:10545000FF35284609B0BDE8F08F82490968096820
:1054600009B9012100E0002121B14FF0FF318E4A3E
:10547000116006E07B490968C968C8688A4A4168C2
:105480001160704710B50446206B02F043F82046C7
:1054900002F040F810BD70B5054602F096F915B956
:1054A0007348006800E028460446201DFEF7DCFE35
:1054B00078B9E06A00EB8000644951F8200040B9F7
:1054C00094F82C10012088406C49096881436B488E
:1054D0000160A06A18B104F11800FEF7C5FE664825
:1054E0000068401C6449086061480068844209D132
:1054F000211D5A48FEF792FE6C480068401C6B491B
:10550000086009E059480068401E58490860204674
:10551000FFF7B8FFFFF7A1FF02F07AF955480068DE
:10552000C0B153480068844214D16148006808B98A
:10553000012000E0002028B940F2B64251A156A057
:1055400003F0FEFF4FF080504D490860BFF34F8FCE
:10555000BFF36F8F70BD2DE9F0414FF00008544844
:105560000068002871D153480068451C5148056007
:10557000EDB93C480068006808B9012000E000204F
:1055800028B940F662223FA143A003F0D9FF354875
:105590000768354800683349086033480760464863
:1055A0000068401C44490860FFF757FF00BF3E48B1
:1055B000006885423CD300BF2A480068006808B9EB
:1055C000012000E0002020B14FF0FF303649086094
:1055D0002DE024480068C068C4686668B54202D2FD
:1055E0003148066023E0201DFEF73EFEA06A18B198
:1055F00004F11800FEF738FE94F82C1001208840C2
:105600001E49096808431D490860E16A01EB8101F0
:105610000E4A02EB8100211DFEF700FE1449E06AEC
:105620000968C96A8842C7D34FF00108C4E700BFC0
:105630000F480068C06A00EB8000044951F8200060
:10564000012801D94FF001083DE037E0B403002004
:1056500034060020480600205C060020700600206A
:105660008406002080000020840000208C000020A0
:105670007C00002098000020A8000020940000205A
:1056800004ED00E02E2E5C4672656552544F535C6B
:105690007461736B732E63004572726F723A257377
:1056A0002C25640D0A000000AC00002088000020BA
:1056B000B400002090000020A4000020FC480068F6
:1056C000401CFB490860FB48006808B14FF0010826
:1056D0004046BDE8F08170B500240026F648006819
:1056E00038B940F66802AFF26401AFF2540003F03B
:1056F00027FF02F06AF8F0480068401EEE49086093
:105700000846006800284FD1EC48006800284BD0BC
:1057100024E0EB48C068C46804F11800FEF7A4FD5B
:10572000201DFEF7A1FD94F82C1001208840E549CA
:1057300009680843E3490860E16A01EB8101E24A34
:1057400002EB8100211DFEF769FDE049E06A09686E
:10575000C96A884202D30120D6490860D848006847
:1057600008B9012000E000200028D2D00CB1FFF7DA
:1057700074FECF48056865B100BFFFF7ECFE10B1BD
:105780000120CC4908606D1E002DF6D10020C849CB
:105790000860C848006838B101263007CC49086065
:1057A000BFF34F8FBFF36F8F02F032F8304670BDFA
:1057B0002DE9F04105460E46C6480768C348006813
:1057C000001DFEF751FD50B9C048006890F82C103C
:1057D00001208840BB4909688143BA480160681CC0
:1057E00038B936B1B9480168091DBB48FEF716FD46
:1057F0001AE07C19B54800684460BC4207D2B3483F
:105800000168091DB5480068FEF714FD0CE0AF48BB
:105810000168091DB2480068FEF70CFDB148006838
:10582000844201D2AF480460BDE8F081A24800681C
:10583000401CA149086070472DE9F04704460F4617
:105840004FF000093CB940F2CA42AFF2C811AFF2C2
:10585000B81003F075FE0FB1012000E0002038B948
:1058600040F2CB42AFF2E411AFF2D41003F068FE85
:105870009148006808B9012000E0002038B940F2E2
:10588000CC42AFF20021AFF2F01003F059FEFFF767
:10589000CDFF904806682068C5192068B04207D936
:1058A0002068A8420BD9B54209D94FF0010906E09A
:1058B0002068A84201D8B54201D94FF001092560FE
:1058C000B9F1000F03D0A81B0021FFF771FFFFF70C
:1058D00002FF8046B8F1000F07D14FF080507C499D
:1058E0000860BFF34F8FBFF36F8FBDE8F08770B5CF
:1058F00004460025BCB17048006808B9012000E0EA
:10590000002038B94FF4A462AFF28821AFF27820BA
:1059100003F016FEFFF78AFF00212046FFF748FF3D
:10592000FFF7D9FE05463DB94FF080506849086041
:10593000BFF34F8FBFF36F8F70BD2DE9F047074660
:105940003E463EB940F24C52AFF2C821AFF2B82009
:1059500003F0F6FD5D480068864201D1002426E090
:1059600001F033FF75695E48D0F800905B48D0F8CD
:10597000008001F04DFF4D4501D0454501D1022485
:1059800015E0554885420BD1B06A38B996F85800F1
:10599000012801D102240AE0032408E0022406E0E1
:1059A0005148854200D00DB9042400E0012420466E
:1059B000BDE8F08770B5044601F007FF14B943480D
:1059C000006800E020460646F56A01F021FF2846FF
:1059D00070BD2DE9F041054601F04AFF00BF50219E
:1059E000EFF3118081F31188BFF34F8FBFF36F8FF7
:1059F00000BF044615B93548006800E02846074650
:105A0000FE6A00BF84F3118800BF3046BDE8F08114
:105A10002DE9F04780460D464FF00009202D01D2B8
:105A2000012000E0002038B940F2E652AFF2AC317C
:105A3000AFF29C3003F084FD202D00D31F2501F030
:105A4000C4FEB8F1000F02D12048006800E04046D3
:105A50000446E66CAE4274D0B5420BD91B480068D0
:105A600084420DD019480068C06AA84208D84FF097
:105A7000010905E015480068844201D14FF0010991
:105A8000E76AE16AE06C884200D1E562E564A069FA
:105A900000F0004010B9C5F12000A06107EB8701BC
:105AA000094A02EB8101606988421FD101201EE092
:105AB0009C000020A0000020B40000208C000020EA
:105AC0005C06002094000020B40300207C0000202D
:105AD00004ED00E0900000208406002084000020F7
